:100000000C945A000C946C000C946C000C946C00D2
:100010000C946C000C946C000C946C000C946C00B0
:100020000C946C000C946C000C946C000C946C00A0
:100030000C946C000C946C000C946C000C946C0090
:100040000C946C000C946C000C946C000C946C0080
:100050000C946C000C946C000C946C000C946C0070
:100060000C946C000C946C000C946C000C946C0060
:100070000C946C000C946C000C946C000C946C0050
:100080000C946C000C946C000C946C000C946C0040
:100090000C946C000C946C000C946C000C946C0030
:1000A0000C946C000C946C000C946C000C946C0020
:1000B0000C946C0011241FBECFEFD8E0DEBFCDBF83
:1000C00021E0A0E0B1E001C01D92A230B207E1F74B
:1000D0000E944B010C94DA020C94000084B18C62F3
:1000E00084B985B1846285B98CB588658CBD089565
:1000F0002A989EBD0DB407FEFDCF8EBD0DB407FE40
:10010000FDCF2A9A089580E091E00E94780080E077
:1001100091E20E9478008DE492E60E94780081E4EA
:1001200090E40E94780080E090EC0E94780080E0EB
:1001300090E00E9478000895FF920F931F93CF9351
:10014000DF93F42E052E5CE1660F771F881F991F41
:100150005A95D1F7502D20E438E74DE751E00E9441
:10016000B802E901DF73DA01C901072E7EE0B69516
:10017000A795979587957A95D1F7702D8C011F7368
:10018000809100019091010191629093010180930F
:100190000001F1100CC0D0641064809100019091B6
:1001A0000101977F90930101809300010EC081E0CF
:1001B000F8120BC0D0681068809100019091010185
:1001C00098609093010180930001809100019091CB
:1001D00001010E947800CE010E947800C8010E94AF
:1001E000780080910001909101019E7F9093010120
:1001F0008093000180910001909101010E9478009C
:10020000DF91CF911F910F91FF900895CF93C62F4B
:1002100060E070E0782F7295707F80E090E00E943F
:100220002A022BED3FE049EC50E40E9489010E9434
:10023000FB01AB012091000130910101316030934D
:10024000010120930001C1110BC0506C20910001ED
:10025000309101013B7F30930101209300010DC0DB
:10026000C13059F4AB01506E209100013091010171
:1002700034603093010120930001CA010E9478008C
:1002800080910001909101019E7F909301018093E4
:100290000001CF9108950E946E000E948300C0E18A
:1002A000D7E2BE010D2E000C880B990B40E00E9496
:1002B0009C002FEF87EA91E6215080409040E1F7C3
:1002C00000C00000C05FD84DC03F28EED20749F7FC
:1002D00040E068EE73E080E090E00E949C00C0E0A7
:1002E000D0E060E0CE010E9406018FEF97EA21E6A0
:1002F000815090402040E1F700C000002296C836AF
:1003000081E0D80771F760E080E090E00E9406018C
:10031000C6CF0E949D010C947E020E94770258F085
:100320000E94700240F029F45F3F29F00C946702AC
:1003300051110C94B2020C946D020E948F0268F36A
:100340009923B1F3552391F3951B550BBB27AA278E
:1003500062177307840738F09F5F5F4F220F331FC8
:10036000441FAA1FA9F335D00E2E3AF0E0E832D090
:1003700091505040E695001CCAF72BD0FE2F29D093
:10038000660F771F881FBB1F261737074807AB0765
:10039000B0E809F0BB0B802DBF01FF2793585F4FDA
:1003A0003AF09E3F510578F00C9467020C94B2022B
:1003B0005F3FE4F3983ED4F3869577956795B795BC
:1003C000F7959F5FC9F7880F911D9695879597F9C7
:1003D0000895E1E0660F771F881FBB1F6217730740
:1003E0008407BA0720F0621B730B840BBA0BEE1F55
:1003F00088F7E09508950E94970288F09F5798F03B
:10040000B92F9927B751B0F0E1F0660F771F881F19
:10041000991F1AF0BA95C9F714C0B13091F00E9433
:10042000B102B1E008950C94B102672F782F8827AC
:10043000B85F39F0B93FCCF3869577956795B3955A
:10044000D9F73EF490958095709561957F4F8F4FC9
:100450009F4F0895E89409C097FB3EF490958095CE
:10046000709561957F4F8F4F9F4F9923A9F0F92F7A
:1004700096E9BB279395F695879577956795B795F8
:10048000F111F8CFFAF4BB0F11F460FF1BC06F5FDE
:100490007F4F8F4F9F4F16C0882311F096E911C0F0
:1004A000772321F09EE8872F762F05C0662371F011
:1004B00096E8862F70E060E02AF09A95660F771F25
:1004C000881FDAF7880F9695879597F9089597F919
:1004D0009F6780E870E060E008959FEF80EC0895EA
:1004E00000240A9416161706180609060895002413
:1004F0000A9412161306140605060895092E03948D
:10050000000C11F4882352F0BB0F40F4BF2B11F400
:1005100060FF04C06F5F7F4F8F4F9F4F089557FD5F
:100520009058440F551F59F05F3F71F04795880F61
:1005300097FB991F61F09F3F79F0879508951216F8
:1005400013061406551FF2CF4695F1DF08C01616A4
:1005500017061806991FF1CF869571056105089455
:100560000895E894BB2766277727CB0197F908956C
:10057000A1E21A2EAA1BBB1BFD010DC0AA1FBB1FA7
:10058000EE1FFF1FA217B307E407F50720F0A21B19
:10059000B30BE40BF50B661F771F881F991F1A9486
:1005A00069F760957095809590959B01AC01BD01B0
:0805B000CF010895F894FFCF7C
:00000001FF
