:100000000C945A000C946C000C946C000C946C00D2
:100010000C946C000C946C000C946C000C946C00B0
:100020000C946C000C946C000C946C000C946C00A0
:100030000C946C000C946C000C946C000C946C0090
:100040000C946C000C946C000C946C000C946C0080
:100050000C946C000C946C000C946C000C946C0070
:100060000C946C000C946C000C946C000C946C0060
:100070000C946C000C946C000C946C000C946C0050
:100080000C946C000C946C000C946C000C946C0040
:100090000C946C000C946C000C946C000C946C0030
:1000A0000C946C000C946C000C946C000C946C0020
:1000B0000C946C0011241FBECFEFD8E0DEBFCDBF83
:1000C00021E0A0E0B1E001C01D92AE30B207E1F73F
:1000D0000E9483000C94CB000C94000084B18C62CD
:1000E00084B985B1846285B98CB588658CBD089565
:1000F0002A989EBD0DB407FEFDCF8EBD0DB407FE40
:10010000FDCF2A9A08950E946E0080910C01909173
:100110000D018866916290930D0180930C0144EF6C
:1001200051E060E070E04093080150930901609352
:100130000A0170930B0148EF54E160E070E04093D6
:10014000040150930501609306017093070120E0BC
:1001500030E4309303012093020128EF34E530931B
:100160000101209300010E9478008091000190918C
:1001700001010E94780080910201909103010E9488
:10018000780080910C0190910D019E7F0E94780073
:0A01900080E090E00895F894FFCF9E
:00000001FF
