S014000070726F746F747970655F76302E7372656315
S11300000C945A000C9477000C9477000C947700AD
S11300100C9477000C9477000C9477000C94770080
S11300200C9477000C9477000C9477000C94770070
S11300300C9477000C9477000C9477000C94770060
S11300400C9477000C9477000C9477000C94770050
S11300500C9477000C9477000C9477000C94770040
S11300600C9477000C9477000C9477000C94770030
S11300700C9477000C9477000C9477000C94770020
S11300800C9477000C9477000C9477000C94770010
S11300900C9477000C9477000C9477000C94770000
S11300A00C9477000C9477000C9477000C947700F0
S11300B00C94770011241FBECFEFD8E0DEBFCDBF74
S11300C011E0A0E0B1E0E2E1FEE002C005900D9293
S11300D0AE37B107D9F721E0AEE7B1E001C01D9218
S11300E0A039B207E1F70E9416030C9407070C9499
S11300F0000084B18C6284B985B1846285B98CB501
S113010088658CBD08952A989EBD0DB407FEFDCF69
S11301108EBD0DB407FEFDCF2A9A089580E091E0CC
S11301200E94830080E091E20E9483008DE492E6C5
S11301300E94830081E490E40E94830080E090ECBC
S11301400E94830080E090E00E9483000895FF9263
S11301500F931F93CF93DF93F42E052E5CE1660F6C
S1130160771F881F991F5A95D1F7502D20E438E73F
S11301704DE751E00E94B006E901DF73DA01C901DD
S1130180072E7EE0B695A795979587957A95D1F732
S1130190702D8C011F7380917E0190917F0191627B
S11301A090937F0180937E01F1100CC0D0641064A1
S11301B080917E0190917F01977F90937F0180933E
S11301C07E010EC081E0F8120BC0D06810688091E7
S11301D07E0190917F01986090937F0180937E01CE
S11301E080917E0190917F010E948300CE010E9444
S11301F08300C8010E94830080917E0190917F0159
S11302009E7F90937F0180937E0180917E019091E7
S11302107F010E948300DF91CF911F910F91FF9086
S11302200895CF93C62F60E070E0782F7295707FA9
S113023080E090E00E9422062BED3FE049EC50E480
S11302400E9481050E94F305AB0120917E0130914B
S11302507F01316030937F0120937E01C1110BC077
S1130260506C20917E0130917F013B7F30937F0160
S113027020937E010DC0C13059F4AB01506E209122
S11302807E0130917F01346030937F0120937E01A1
S1130290CA010E94830080917E0190917F019E7F1C
S11302A090937F0180937E01CF91089580917E0188
S11302B090917F01916090937F0180937E01809162
S11302C07E0190917F018D7990937F0180937E01CF
S11302D080917E0190917F010E94830080917E0134
S11302E090917F019E7F90937F0180937E01809106
S11302F07E0190917F010E9483000895CF93C82FBF
S11303000E9456016C2F8AE590E00E941101CF9162
S1130310089580917E0190917F0182609160909315
S11303207F0180937E0180917E0190917F018F797E
S113033090937F0180937E0180917E0190917F0153
S11303400E94830080917E0190917F019E7F909313
S11303507F0180937E0180917E0190917F010E94B4
S11303608300089580917E0190917F018866916059
S113037090937F0180937E0180917E0190917F0113
S11303808D7F90937F0180937E0180917E01909177
S11303907F010E94830080917E0190917F019E7F66
S11303A090937F0180937E0180917E0190917F01E3
S11303B00E948300089580918501813049F028F0DE
S11303C0823051F0833059F008950E945601089507
S11303D080E00E947E0108950E94B20108950E9467
S11303E089010895EF92FF920F931F93CF93DF93A8
S11303F07B01142F880F0E948904811112C01123DC
S113040091F0E7011150012F10E00F5F1F4F0E0D07
S11304101F1D89910E94B904C017D107D1F7C0E00C
S113042003C0C1E001C0C0E00E94B0048C2FDF9182
S1130430CF911F910F91FF90EF9008950F931F9309
S1130440CF93DF9300D000D01F92CDB7DEB7082F33
S1130450683071F4811102C080E001C088E08093AB
S1130460000141E060E071E087E20E94F20126C0F1
S113047080910001162F182B1983802F807F8460B0
S1130480812B8A838B7F8B8320E1029FC0011124FF
S1130490812B84608C838B7F8D8345E0BE016F5FED
S11304A07F4F87E20E94F20110FD08C0033030F450
S11304B0E3EFF1E03197F1F700C000000F900F90E7
S11304C00F900F900F90DF91CF911F910F9108958E
S11304D0CF93DF93D82FC62FE62FF0E0E25EFE4FD6
S11304E0808160E08D0F0E941E028DEE92E00197E4
S11304F0F1F700C00000D0938E01C0938F01DF910B
S1130500CF91089560E081E00E941E0210928F0155
S113051010928E010895CF93C82F90918E018091EF
S11305208D01981718F4CA3059F41AC060918F01DC
S11305306F5F60938F0180E00E946802CA30C1F04F
S113054080918E018F5F80938E0161E08C2F0E94D9
S11305501E028DEE92E00197F1F700C0000008C082
S113056060918F016F5F60938F0180E00E94680249
S1130570CF910895CF93DF93EC018881882331F0E4
S113058021960E948B0289918111FBCFDF91CF913B
S11305900895DF92EF92FF920F931F93CF93DF930F
S11305A000D000D000D0CDB7DEB7D82E86E0E8E189
S11305B0F1E0DE01119601900D928A95E1F784E154
S11305C080938D010E9483048BE49DE10197F1F7F0
S11305D000C000008E010F5F1F4F7E0197E0E90EFF
S11305E0F11C60E0F80181918F010E941E0281EEEE
S11305F094E00197F1F700C000000E151F0589F77C
S113060060E08D2D0E941E0226960FB6F894DEBF80
S11306100FBECDBFDF91CF911F910F91FF90EF904F
S1130620DF90089568E00E941E02089510918501EC
S1130630C0908901D0908A01E0908B01F0908C01E8
S11306408090890190908A01A0908B01B0908C01D8
S1130650C0918701D091880186B181708093820115
S11306600E945B050E9479000E948E000E94630430
S113067080918301882309F4BCC080918401813076
S1130680F1F030F08230C9F1833009F489C0BEC082
S113069080918001813039F4809185018F5F83706E
S11306A080938501B3C080918001823009F0AEC08F
S11306B0809185018150837080938501A7C08091CA
S11306C08001813051F480918601843134F4809129
S11306D086018F5F8093860199C08091800182306A
S11306E009F094C0809186018D3E0CF48FC08091F6
S11306F0860181508093860189C080918001813078
S113070011F58091890190918A01A0918B01B0919A
S11307108C0180329C4BAE4BB105A8F480918901C9
S113072090918A01A0918B01B0918C0188519C4FCA
S1130730AF4FBF4F8093890190938A01A0938B019F
S1130740B0938C0124C080918001823001F58091A6
S1130750890190918A01A0918B01B0918C0102973B
S1130760A105B105A0F08091890190918A01A09121
S11307708B01B0918C01885E9340A109B1098093EB
S1130780890190938A01A0938B01B0938C0180908E
S1130790890190908A01A0908B01B0908C0136C0A1
S11307A080918001813089F4809187019091880142
S11307B08836914050F48091870190918801019688
S11307C0909388018093870121C0809180018230B9
S11307D0E9F48091870190918801892BB9F0809187
S11307E087019091880101979093880180938701F4
S11307F00DC080918001813019F40E944D0406C01F
S113080080918001823011F40E945804809180010B
S1130810882339F10E94DD048091850118130E9418
S1130820DB018091890190918A01A0918B01B091A3
S11308308C01C816D906EA06FB0629F040E0C5017A
S1130840B4010E94A7008091870190918801C81784
S1130850D90739F0809187019091880160E00E9466
S1130860110110918501C0908901D0908A01E09016
S11308708B01F0908C01C0918701D09188018FE3A6
S11308809CE90197F1F700C00000F0CE87B1887FA2
S113089087B988B1836088B9089580918401809371
S11308A00101809184018F5F837080938401089596
S11308B0809184018093010180918401815083702F
S11308C080938401089586B1817080938101109290
S11308D080019091810180918201981759F086B12D
S11308E0909181018270891302C081E001C082E08D
S11308F080938001329B06C09091830181E0892717
S11309008093830108951092D90088E48093D800DD
S1130910089594EA9093DC00ECEDF0E09081992343
S1130920ECF79091D900987F983011F09031A1F4B0
S11309308093DB0084E88093DC00ECEDF0E08081C0
S11309408823ECF79091D900987F983139F081E0B1
S1130950903429F480E0089581E0089580E00895BA
S113096084E98093DC00ECEDF0E0808184FDFDCF30
S113097008958093DB0084E88093DC00ECEDF0E0E4
S113098080818823ECF79091D900987F81E0983298
S113099009F480E008950E9482028FE39CE90197A4
S11309A0F1F700C000000895682F80E00E946802FB
S11309B082E291E00E94BA020895CF93DF93CDB70B
S11309C0DEB72A970FB6F894DEBF0FBECDBF909165
S11309D0840180910101981771F00E94CB04E09189
S11309E08401F0E0EE0FFF1FE05FFE4F80819181F4
S11309F00E94BA0203C081E00E94D40461E080E056
S1130A000E9468028091840181110CC0E0918501EB
S1130A10F0E0EE0FFF1FEE5FFE4F808191810E9498
S1130A20BA0240C080918401813061F480918601D2
S1130A304AE0BE016F5F7F4F082E000C990B0E94A5
S1130A40D20621C080918401823079F48091890199
S1130A5090918A01A0918B01B0918C014AE0BE0172
S1130A606F5F7F4F0E94D2060EC080918401833055
S1130A7051F480918701909188014AE0BE016F5F33
S1130A807F4F0E94D206CE0101960E94BA02E091E5
S1130A908401F0E0EE0FFF1FE85FFE4F808191813B
S1130AA00E94BA022A960FB6F894DEBF0FBECDBFDD
S1130AB0DF91CF9108950E9446048DB18C7F8DB94A
S1130AC08EB183608EB982E00E94C90280E00E94E8
S1130AD012032FEF89E698E1215080409040E1F71E
S1130AE000C0000081E00E9412032FEF89E698E124
S1130AF0215080409040E1F700C000000E94DD04D6
S1130B0008950E9495050C9476060E946F0658F08D
S1130B100E94680640F029F45F3F29F00C945F06B8
S1130B2051110C94AA060C9465060E94870668F37A
S1130B309923B1F3552391F3951B550BBB27AA2792
S1130B4062177307840738F09F5F5F4F220F331FCC
S1130B50441FAA1FA9F335D00E2E3AF0E0E832D094
S1130B6091505040E695001CCAF72BD0FE2F29D097
S1130B70660F771F881FBB1F261737074807AB0769
S1130B80B0E809F0BB0B802DBF01FF2793585F4FDE
S1130B903AF09E3F510578F00C945F060C94AA0637
S1130BA05F3FE4F3983ED4F3869577956795B795C0
S1130BB0F7959F5FC9F7880F911D9695879597F9CB
S1130BC00895E1E0660F771F881FBB1F6217730744
S1130BD08407BA0720F0621B730B840BBA0BEE1F59
S1130BE088F7E09508950E948F0688F09F5798F043
S1130BF0B92F9927B751B0F0E1F0660F771F881F1E
S1130C00991F1AF0BA95C9F714C0B13091F00E9437
S1130C10A906B1E008950C94A906672F782F8827B8
S1130C20B85F39F0B93FCCF3869577956795B3955E
S1130C30D9F73EF490958095709561957F4F8F4FCD
S1130C409F4F0895E89409C097FB3EF490958095D2
S1130C50709561957F4F8F4F9F4F9923A9F0F92F7E
S1130C6096E9BB279395F695879577956795B795FC
S1130C70F111F8CFFAF4BB0F11F460FF1BC06F5FE2
S1130C807F4F8F4F9F4F16C0882311F096E911C0F4
S1130C90772321F09EE8872F762F05C0662371F015
S1130CA096E8862F70E060E02AF09A95660F771F29
S1130CB0881FDAF7880F9695879597F9089597F91D
S1130CC09F6780E870E060E008959FEF80EC0895EE
S1130CD000240A9416161706180609060895002417
S1130CE00A9412161306140605060895092E039491
S1130CF0000C11F4882352F0BB0F40F4BF2B11F405
S1130D0060FF04C06F5F7F4F8F4F9F4F089557FD63
S1130D109058440F551F59F05F3F71F04795880F65
S1130D2097FB991F61F09F3F79F0879508951216FC
S1130D3013061406551FF2CF4695F1DF08C01616A8
S1130D4017061806991FF1CF869571056105089459
S1130D500895E894BB2766277727CB0197F9089570
S1130D60A1E21A2EAA1BBB1BFD010DC0AA1FBB1FAB
S1130D70EE1FFF1FA217B307E407F50720F0A21B1D
S1130D80B30BE40BF50B661F771F881F991F1A948A
S1130D9069F760957095809590959B01AC01BD01B4
S1130DA0CF010895BB274A3031F4992322F4BDE2E0
S1130DB0909581959F4F0C94DE06BB27FB01552728
S1130DC0AA27880F991FAA1FA41710F0A41B8395A4
S1130DD05051B9F7A05DAA3308F0A95DA19300971B
S1130DE079F7B111B1931192CB010C94F706DC01A0
S1130DF0FC01672F71917723E1F7329704C07C914E
S1130E006D9370836291AE17BF07C8F30895F89489
S1050E10FFCF0E
S1130E1208FF390137013E0145014E0151015501D7
S1130E225A0162016B0176013332280C060180C03B
S1130E3294D4202020202020202020202020202084
S1130E4220202020202000636F73696E6500737177
S1130E527561726500747269616E676C6500205613
S1130E620020487A0020646567005369676E616CEC
S1130E723A00566F6C746167653A00467265717523
S1110E82656E63793A0050686173653A00004A
S9030000FC
