:100000000C945A000C9477000C9477000C947700B1
:100010000C9477000C9477000C9477000C94770084
:100020000C9477000C9477000C9477000C94770074
:100030000C9477000C9477000C9477000C94770064
:100040000C9424080C9477000C9477000C9477009F
:100050000C9477000C9477000C9477000C94770044
:100060000C9477000C9477000C9477000C94770034
:100070000C9477000C9477000C9477000C94770024
:100080000C9477000C9477000C9477000C94770014
:100090000C9477000C9477000C9477000C94770004
:1000A0000C9477000C9477000C9477000C947700F4
:1000B0000C94770011241FBECFEFD8E0DEBFCDBF78
:1000C00011E0A0E0B1E0E0E4F2E202C005900D92A0
:1000D000A237B107D9F721E0A2E7B1E001C01D9234
:1000E000A837B207E1F70E9461060C941E110C9428
:1000F0000000CF93DF93CDB7DEB780E091E00E94A0
:10010000720880E091E20E9472088DE492E60E94FB
:10011000720881E490E40E94720880E090EC0E94F2
:10012000720880E090E00E9472080000DF91CF9199
:100130000895AF92BF92CF92DF92EF92FF920F930A
:100140001F93CF93DF93CDB7DEB761970FB6F894C7
:10015000DEBF0FBECDBF6D877E878F87988B498BA3
:100160001D821E821F82188619861A861B861C868F
:100170008D859E85AF85B88981329C4BAE4BB1058C
:1001800048F080E29CEBAEEBB0E08D879E87AF87B6
:10019000B88B10C08D859E85AF85B889892B8A2B39
:1001A0008B2B41F481E090E0A0E0B0E08D879E874A
:1001B000AF87B88B6D857E858F8598890E94A20C4C
:1001C000DC01CB0127E73CEC4BE251E4BC01CD0163
:1001D0000E94690DDC01CB01BC01CD010E943C0CE9
:1001E000A22EB32EC42ED52EE62EF72E082F192FB1
:1001F000AD82BE82CF82D886E986FA860B871C87BD
:100200008D819E819F739A8389832D813E814F8149
:10021000588569857A858B859C850EE00E94D80D6E
:10022000A22EB32EC42ED52EE62EF72E082F192F70
:10023000C5019F739C838B838091720190917301A0
:100240009162909373018093720189898823A1F44C
:1002500089819A8190649A8389838B819C8190643F
:100260009C838B838091720190917301977F90930F
:1002700073018093720116C08989813099F4898154
:100280009A8190689A8389838B819C8190689C83F2
:100290008B838091720190917301986090937301A8
:1002A0008093720180917201909173010E94720893
:1002B00089819A810E9472088B819C810E947208B8
:1002C00080917201909173019E7D90937301809350
:1002D000720180917201909173010E947208000076
:1002E00061960FB6F894DEBF0FBECDBFDF91CF9100
:1002F0001F910F91FF90EF90DF90CF90BF90AF9044
:100300000895CF93DF9300D000D01F92CDB7DEB712
:100310009C838B836D838B819C81982F88279295FA
:10032000907FCC01A0E0B0E0BC01CD010E94A20C06
:10033000DC01CB012BED3FE049EC50E4BC01CD01E9
:100340000E94C50BDC01CB01BC01CD010E94730CE6
:10035000DC01CB019A8389838091720190917301B2
:10036000916090937301809372018D81882371F461
:1003700089819A81906C9A8389838091720190918E
:1003800073019B7F90937301809372018D81813003
:1003900071F489819A81906E9A8389838091720128
:1003A000909173019460909373018093720189819D
:1003B0009A810E94720880917201909173019E7FD0
:1003C000909373018093720100000F900F900F9033
:1003D0000F900F90DF91CF910895CF93DF93CDB71A
:1003E000DEB78091720190917301916090937301D7
:1003F0008093720180917201909173018D79909335
:1004000073018093720180917201909173010E9437
:10041000720880917201909173019E7F9093730195
:100420008093720180917201909173010E94720811
:100430000000DF91CF910895CF93DF931F92CDB746
:10044000DEB789830E94ED0169818AE590E00E9410
:10045000810100000F90DF91CF910895CF93DF933A
:10046000CDB7DEB780917201909173018260916087
:100470009093730180937201809172019091730146
:100480008F799093730180937201809172019091A2
:1004900073010E94720880917201909173019E7F96
:1004A0009093730180937201809172019091730116
:1004B0000E9472080000DF91CF910895CF93DF93DF
:1004C000CDB7DEB78091720190917301886691601B
:1004D00090937301809372018091720190917301E6
:1004E0008D7F90937301809372018091720190913E
:1004F00073010E94720880917201909173019E7F36
:1005000090937301809372018091720190917301B5
:100510000E9472080000DF91CF910895CF93DF937E
:100520001F92CDB7DEB789838981882F90E0813013
:10053000910579F0823091051CF4892B39F013C0B4
:100540008230910551F0039759F00DC00E94ED01E2
:100550000AC080E00E941C0206C00E945E0203C026
:100560000E942E02000000000F90DF91CF910895AD
:10057000CF93DF9300D000D000D0CDB7DEB78B8310
:100580007D836C834E8381E089838B81880F0E94F9
:10059000C4088823A9F41A820EC08A81882F90E0AB
:1005A0002C813D81820F931FFC0180810E942109D3
:1005B0008A818F5F8A839A818E81981770F319825E
:1005C0000E940909898126960FB6F894DEBF0FBEF6
:1005D000CDBFDF91CF910895CF93DF93CDB7DEB735
:1005E00066970FB6F894DEBF0FBECDBF8D8B6E8BB6
:1005F00081E089838E89883079F48D89882311F090
:1006000088E001C080E08093040141E064E071E093
:1006100087E20E94B802A9C0809104019E89892BBB
:100620008E8B8E89888B8D89982F907F8E89892BD0
:100630008460898B89898B7F8A8B8D89882F90E054
:1006400082959295907F9827807F9827982F8E8902
:10065000892B84608B8B8B898B7F8C8BCE01409612
:1006600045E0BC0187E20E94B80289838E89882F09
:1006700090E081709927892B09F076C08D898330AD
:1006800008F072C080E090E0A0E0B0E48A839B8331
:10069000AC83BD8320E030E04AE753E46A817B818C
:1006A0008C819D810E94690DDC01CB018E839F832B
:1006B000A887B98720E030E040E85FE36E817F8162
:1006C000888599850E94C00B88232CF481E090E0F6
:1006D0009B878A873FC020E03FEF4FE757E46E815A
:1006E0007F81888599850E94640D18164CF520E05D
:1006F00030E040E251E46A817B818C819D810E94DF
:10070000690DDC01CB01BC01CD010E94730CDC0141
:10071000CB019B878A870FC089E190E09D878C87FA
:100720008C859D850197F1F79D878C878A859B85B0
:1007300001979B878A878A859B85892B69F714C0D7
:100740006E817F81888599850E94730CDC01CB01C5
:100750009B878A878A859B859F878E878E859F85C5
:100760000197F1F79F878E87898166960FB6F89477
:10077000DEBF0FBECDBFDF91CF910895CF93DF9342
:10078000CDB7DEB760970FB6F894DEBF0FBECDBF12
:100790008F87688B8889882F90E080509F4FFC015D
:1007A00090818F85890F60E00E94EC0280E090E0EC
:1007B000A0E4B0E489839A83AB83BC8320E030E07B
:1007C0004AE753E469817A818B819C810E94690D9B
:1007D000DC01CB018D839E83AF83B88720E030E0BE
:1007E00040E85FE36D817E818F8198850E94C00B18
:1007F00088232CF481E090E09A8789873FC020E02D
:100800003FEF4FE757E46D817E818F8198850E948D
:10081000640D18164CF520E030E040E251E46981A7
:100820007A818B819C810E94690DDC01CB01BC0126
:10083000CD010E94730CDC01CB019A8789870FC020
:1008400089E190E09C878B878B859C850197F1F7E8
:100850009C878B8789859A8501979A87898789855F
:100860009A85892B69F714C06D817E818F81988567
:100870000E94730CDC01CB019A87898789859A8550
:100880009E878D878D859E850197F1F79E878D8741
:100890008F85809376018889809377010000609628
:1008A0000FB6F894DEBF0FBECDBFDF91CF91089594
:1008B000CF93DF93CDB7DEB760E081E00E94EC021A
:1008C0001092770180917701809376010000DF918B
:1008D000CF910895CF93DF93CDB7DEB72F970FB6A3
:1008E000F894DEBF0FBECDBF8F87909176018091C7
:1008F0007501981718F48F858A3059F48091770123
:100900008F5F8093770180917701682F80E00E944C
:10091000BE038F858A3009F47BC0809176018F5F9A
:100920008093760161E08F850E94EC0280E090E088
:10093000A0E4B0E489839A83AB83BC8320E030E0F9
:100940004AE753E469817A818B819C810E94690D19
:10095000DC01CB018D839E83AF83B88720E030E03C
:1009600040E85FE36D817E818F8198850E94C00B96
:1009700088232CF481E090E09A8789873FC020E0AB
:100980003FEF4FE757E46D817E818F8198850E940C
:10099000640D18164CF520E030E040E251E4698126
:1009A0007A818B819C810E94690DDC01CB01BC01A5
:1009B000CD010E94730CDC01CB019A8789870FC09F
:1009C00089E190E09C878B878B859C850197F1F767
:1009D0009C878B8789859A8501979A8789878985DE
:1009E0009A85892B69F714C06D817E818F819885E6
:1009F0000E94730CDC01CB019A87898789859A85CF
:100A00009E878D878D859E850197F1F79E878D87BF
:100A100000002F960FB6F894DEBF0FBECDBFDF915A
:100A2000CF910895CF93DF9300D0CDB7DEB79A83EF
:100A300089830BC089819A819C012F5F3F4F3A8344
:100A40002983FC0180810E946A0489819A81FC01CA
:100A50008081882379F700000F900F90DF91CF916C
:100A60000895CF93DF93CDB7DEB7A4970FB6F89470
:100A7000DEBF0FBECDBF8CA386E0EBE1F1E0DE016F
:100A80005E9601900D928A95E1F780E18093750161
:100A90000E94B30880E090E0A0EFB1E48E839F83D2
:100AA000A887B98720E030E04AE753E46E817F8170
:100AB000888599850E94690DDC01CB018A879B8717
:100AC000AC87BD8720E030E040E85FE36A857B8546
:100AD0008C859D850E94C00B88232CF481E090E0DA
:100AE0009F878E873FC020E03FEF4FE757E46A853E
:100AF0007B858C859D850E94640D18164CF520E041
:100B000030E040E251E46E817F81888599850E94C2
:100B1000690DDC01CB01BC01CD010E94730CDC012D
:100B2000CB019F878E870FC089E190E0998B888BDE
:100B3000888999890197F1F7998B888B8E859F8594
:100B400001979F878E878E859F85892B69F714C0B3
:100B50006A857B858C859D850E94730CDC01CB01A9
:100B60009F878E878E859F859B8B8A8B8A899B89A1
:100B70000197F1F79B8B8A8B198282C08981882F1C
:100B800090E09E01225E3F4F820F931FFC01808107
:100B900060E00E94EC0280E090E0A0EAB0E48A838A
:100BA0009B83AC83BD8320E030E04AE753E46A8155
:100BB0007B818C819D810E94690DDC01CB018C8B36
:100BC0009D8BAE8BBF8B20E030E040E85FE36C890B
:100BD0007D898E899F890E94C00B88232CF481E037
:100BE00090E0998F888F3FC020E03FEF4FE757E4B8
:100BF0006C897D898E899F890E94640D18164CF539
:100C000020E030E040E251E46A817B818C819D816B
:100C10000E94690DDC01CB01BC01CD010E94730C67
:100C2000DC01CB01998F888F0FC089E190E09B8F09
:100C30008A8F8A8D9B8D0197F1F79B8F8A8F888D84
:100C4000998D0197998F888F888D998D892B69F758
:100C500014C06C897D898E899F890E94730CDC0188
:100C6000CB01998F888F888D998D9D8F8C8F8C8DDE
:100C70009D8D0197F1F79D8F8C8F89818F5F89837F
:100C80008981863008F47ACF60E08CA10E94EC0262
:100C90000000A4960FB6F894DEBF0FBECDBFDF9163
:100CA000CF910895CF93DF931F92CDB7DEB789839D
:100CB00068E089810E94EC0200000F90DF91CF91E3
:100CC0000895CF92EF920F931F93CF93DF93CDB7F9
:100CD000DEB761970FB6F894DEBF0FBECDBF1982A5
:100CE0001A8280EA96E8A1E0B0E08B839C83AD8312
:100CF000BE8318861F8281E0898786E290E0FC012E
:100D000080818170888B1A868981898B8A818B8703
:100D10008B819C81AD81BE818C879D87AE87BF878B
:100D20000E9449090E944F080E94790078946A85C0
:100D300088890E94F7078A8780917401882309F4C3
:100D40008BC08981882F90E081309105F1F082304D
:100D500091051CF4892B41F0C7C08230910559F1EF
:100D6000039709F45BC0C0C08A85813029F48A8169
:100D70008F5F83708A83B1C08A85823009F0ADC0ED
:100D80008A81815083708A83A8C08A85813039F432
:100D90008985843124F489858F5F8987A0C08A85FD
:100DA000823009F09CC089858D3E0CF498C08985FD
:100DB0008150898794C08A858130B1F48B819C8170
:100DC000AD81BE8180329C4BAE4BB10568F48B8106
:100DD0009C81AD81BE8188539F4FAF4FBF4F8B83A6
:100DE0009C83AD83BE837DC08A85823009F079C043
:100DF0008B819C81AD81BE810297A105B10508F46C
:100E000070C08B819C81AD81BE81885C9109A109F4
:100E1000B1098B839C83AD83BE8363C08A85813097
:100E200059F48F8198858836914030F48F81988568
:100E3000019698878F830EC08A85823009F053C04F
:100E40008F819885892B09F44EC08F8198850197F1
:100E500098878F83000047C09A818B85981739F057
:100E6000F8948A810E948E028A818B8778942B81E4
:100E70003C814D815E818C859D85AE85BF8528171F
:100E800039074A075B0799F0F8948B819C81AD8103
:100E9000BE8140E0BC01CD010E9499008B819C8104
:100EA000AD81BE818C879D87AE87BF8778948A8508
:100EB000813041F4CE014196BC0189810E94C50771
:100EC000898312C08A85823079F4CE014196BC01B3
:100ED00089810E94DE07898307C0000005C00000E9
:100EE00003C0000001C000008A85882309F41FCFD9
:100EF0002F8138858B819C81AD81BE81BE016F5E63
:100F00007F4FCA80E98489019C01AD0189810E94DB
:100F10001C0B0DCFCF93DF93CDB7DEB787E290E008
:100F200027E230E0F9012081287FFC01208388E25C
:100F300090E028E230E0F90120812360FC01208369
:100F40000E94A6070000DF91CF910895CF93DF9311
:100F5000CDB7DEB786E490E02EE4FC01208385E483
:100F600090E025E430E0F90120812560FC01208338
:100F70008EE690E02EE630E0F90120812160FC0150
:100F800020830000DF91CF910895CF93DF9300D0AD
:100F90001F92CDB7DEB789837B836A838A819B8169
:100FA0002981FC01208389818F5F837089838981F6
:100FB0000F900F900F90DF91CF910895CF93DF9313
:100FC00000D01F92CDB7DEB789837B836A838A8185
:100FD0009B812981FC0120838981815083708983D1
:100FE00089810F900F900F90DF91CF910895CF934B
:100FF000DF9300D01F92CDB7DEB78A836B8386E282
:1010000090E0FC018081817089831B8299818A81B3
:10101000981799F086E290E0FC018081882F90E09B
:101020009C01227033278981882F90E02817390787
:1010300011F082E001C081E08B838B810F900F90D3
:101040000F90DF91CF9108951F920F9200905F0053
:101050000F9211248F939F93EF93FF93CF93DF937E
:10106000CDB7DEB786E290E0FC018081882F90E06A
:1010700084709927892B31F09091740181E0892740
:10108000809374010000DF91CF91FF91EF919F91C8
:101090008F910F9000925F000F901F901895CF9343
:1010A000DF93CDB7DEB784E290E024E230E0F901CF
:1010B00020812C62FC01208385E290E025E230E073
:1010C000F90120812462FC0120838CE490E02CE46F
:1010D00030E0F90120812865FC0120830000DF91C8
:1010E000CF910895CF93DF9300D000D0CDB7DEB776
:1010F0009C838B838B819C81892F992789838B810A
:101100008A8385E290E025E230E0F90120812B7F9F
:10111000FC0120838EE490E02981FC012083000003
:101120008DE490E0FC0180818823D4F78EE490E088
:101130002A81FC01208300008DE490E0FC01808185
:101140008823D4F785E290E025E230E0F9012081A0
:101150002460FC01208300000F900F900F900F90EF
:10116000DF91CF910895CF93DF93CDB7DEB789EDAF
:1011700090E0FC01108288ED90E028E4FC012083DF
:101180000000DF91CF910895CF93DF9300D0CDB7CA
:10119000DEB78A838CED90E024EAFC012083000016
:1011A0008CED90E0FC0180818823D4F789ED90E0FC
:1011B000FC018081887F89838981883029F0898139
:1011C000803111F081E020C08BED90E02A81FC019C
:1011D00020838CED90E024E8FC01208300008CED5E
:1011E00090E0FC0180818823D4F789ED90E0FC0138
:1011F0008081887F89838981883129F08981803441
:1012000011F081E001C080E00F900F90DF91CF914D
:101210000895CF93DF93CDB7DEB78CED90E024E94E
:10122000FC01208300008CED90E0FC018081882F80
:1012300090E080719927892BB1F70000DF91CF9161
:101240000895CF93DF9300D0CDB7DEB78A838BEDBF
:1012500090E02A81FC0120838CED90E024E8FC01E1
:10126000208300008CED90E0FC0180818823D4F77E
:1012700089ED90E0FC018081887F898389818832B3
:1012800011F081E001C080E00F900F90DF91CF91CD
:101290000895CF92EF920F931F93CF93DF93CDB723
:1012A000DEB76E970FB6F894DEBF0FBECDBF1982C2
:1012B0008FEF8E8F0E948A078DE290E02DE230E062
:1012C000F90120812C7FFC0120838EE290E02EE248
:1012D00030E0F90120812360FC01208382E00E943C
:1012E000310580E00E94520680E090E0AAEFB3E46E
:1012F0008A839B83AC83BD8320E030E04AE755E4DA
:101300006A817B818C819D810E94690DDC01CB010A
:101310008C8B9D8BAE8BBF8B20E030E040E85FE391
:101320006C897D898E899F890E94C00B88232CF44B
:1013300081E090E0998F888F3FC020E03FEF4FE73A
:1013400057E46C897D898E899F890E94640D1816E7
:101350004CF520E030E040E251E46A817B818C81F1
:101360009D810E94690DDC01CB01BC01CD010E9471
:10137000730CDC01CB01998F888F0FC080E991E05D
:101380009B8F8A8F8A8D9B8D0197F1F79B8F8A8F18
:10139000888D998D0197998F888F888D998D892B4C
:1013A00069F714C06C897D898E899F890E94730CAE
:1013B000DC01CB01998F888F888D998D9D8F8C8FC3
:1013C0008C8D9D8D0197F1F79D8F8C8F81E00E9410
:1013D000520680E090E0AAEFB3E48E839F83A88753
:1013E000B98720E030E04AE755E46E817F81888547
:1013F00099850E94690DDC01CB018A879B87AC87A8
:10140000BD8720E030E040E85FE36A857B858C851E
:101410009D850E94C00B88232CF481E090E09F877B
:101420008E873FC020E03FEF4FE757E46A857B851A
:101430008C859D850E94640D18164CF520E030E0E7
:1014400040E251E46E817F81888599850E94690D13
:10145000DC01CB01BC01CD010E94730CDC01CB018E
:101460009F878E870FC080E991E0998B888B888950
:1014700099890197F1F7998B888B8E859F850197C4
:101480009F878E878E859F85892B69F714C06A8513
:101490007B858C859D850E94730CDC01CB019F8729
:1014A0008E878E859F859B8B8A8B8A899B890197E6
:1014B000F1F79B8B8A8BCE014E96C12CEE24E394E0
:1014C00000E010E020EA36E841E050E0BC0189810C
:1014D0000E941C0B00006E960FB6F894DEBF0FBE84
:1014E000CDBFDF91CF911F910F91EF90CF900895D5
:1014F000CF93DF93CDB7DEB72E970FB6F894DEBF4C
:101500000FBECDBF0E94580480E090E0A0E2B1E49D
:1015100089839A83AB83BC8320E030E04AE755E4BB
:1015200069817A818B819C810E94690DDC01CB01EC
:101530008D839E83AF83B88720E030E040E85FE38F
:101540006D817E818F8198850E94C00B88232CF449
:1015500081E090E09A8789873FC020E03FEF4FE726
:1015600057E46D817E818F8198850E94640D1816E5
:101570004CF520E030E040E251E469817A818B81D2
:101580009C810E94690DDC01CB01BC01CD010E9450
:10159000730CDC01CB019A8789870FC080E991E049
:1015A0009C878B878B859C850197F1F79C878B8720
:1015B00089859A8501979A87898789859A85892B54
:1015C00069F714C06D817E818F8198850E94730CAC
:1015D000DC01CB019A87898789859A859E878D87CB
:1015E0008D859E850197F1F79E878D8700002E9649
:1015F0000FB6F894DEBF0FBECDBFDF91CF91089537
:10160000CF93DF9300D0CDB7DEB78A836A8180E0C5
:101610000E94BE03198207C08CE691E00E94120569
:1016200089818F5F898389818031B0F300000F90B9
:101630000F90DF91CF910895CF92EF920F931F9368
:10164000CF93DF93CDB7DEB765970FB6F894DEBFC3
:101650000FBECDBF8B877D876C872E873F87488BDA
:10166000598B1B8B0A8BEC8ACD8A8C859D85FC015E
:1016700090818B85981779F00E94780A8B85882F46
:1016800090E0880F991F8B5F9E4FFC0180819181B4
:101690000E94120503C081E00E94000B61E080E01F
:1016A0000E94BE038B85882369F48D89882F90E082
:1016B000880F991F8D5E9E4FFC01808191810E9451
:1016C00012054FC08B85813069F48C89082E000C7F
:1016D000990B4AE050E09E012F5F3F4FB9010E94F5
:1016E000F40D2EC08B858230F1F489898F9388891F
:1016F0008F938F858F938E858F938EE691E0892FC0
:101700008F938EE691E08F93CE0101969F938F93F6
:101710000E94240E8DB79EB708960FB6F894DEBFD0
:101720000FBECDBF0DC08B85833051F48A899B8954
:101730004AE050E09E012F5F3F4FB9010E94F40D37
:10174000CE0101960E9412058B85882F90E00197AB
:10175000880F991F835F9E4FFC01808191810E94B9
:1017600012051982000065960FB6F894DEBF0FBE11
:10177000CDBFDF91CF911F910F91EF90CF90089542
:101780000E94DF0C08F481E008950E94D90B0C94AC
:101790002A0D0E94230D58F00E941C0D40F029F4E0
:1017A0005F3F29F00C94030D51110C945E0D0C94C5
:1017B000090D0E943B0D68F39923B1F3552391F372
:1017C000951B550BBB27AA2762177307840738F0B0
:1017D0009F5F5F4F220F331F441FAA1FA9F335D00D
:1017E0000E2E3AF0E0E832D091505040E695001CC1
:1017F000CAF72BD0FE2F29D0660F771F881FBB1F7B
:10180000261737074807AB07B0E809F0BB0B802D58
:10181000BF01FF2793585F4F3AF09E3F510578F084
:101820000C94030D0C945E0D5F3FE4F3983ED4F3EB
:10183000869577956795B795F7959F5FC9F7880F58
:10184000911D9695879597F90895E1E0660F771FAA
:10185000881FBB1F621773078407BA0720F0621B3B
:10186000730B840BBA0BEE1F88F7E0950895BEE367
:1018700004D008F490E80895BFE322273327A90194
:101880000E94430D60F19F5748F1B91740F1BFE343
:10189000B91B9927B8503AF4660F771F881F991F14
:1018A000B395D2F316C0B8504AF0232F342F452FEA
:1018B000562F672F782F8827B850BAF7B85F49F0AE
:1018C0008695779567955795479537952795BA9556
:1018D000B9F716F40E940C0D88940895889460E07E
:1018E00070E0CB0108950E94430D88F09F5798F057
:1018F000B92F9927B751B0F0E1F0660F771F881F15
:10190000991F1AF0BA95C9F714C0B13091F00E942E
:101910005D0DB1E008950C945D0D672F782F882739
:10192000B85F39F0B93FCCF3869577956795B39555
:10193000D9F73EF490958095709561957F4F8F4FC4
:101940009F4F0895E89409C097FB3EF490958095C9
:10195000709561957F4F8F4F9F4F9923A9F0F92F75
:1019600096E9BB279395F695879577956795B795F3
:10197000F111F8CFFAF4BB0F11F460FF1BC06F5FD9
:101980007F4F8F4F9F4F16C0882311F096E911C0EB
:10199000772321F09EE8872F762F05C0662371F00C
:1019A00096E8862F70E060E02AF09A95660F771F20
:1019B000881FDAF7880F9695879597F90895990FFC
:1019C0000008550FAA0BE0E8FEEF16161706E80709
:1019D000F907C0F012161306E407F50798F0621B2A
:1019E000730B840B950B39F40A2661F0232B242BFF
:1019F000252B21F408950A2609F4A140A6958FEF1E
:101A0000811D811D089597F99F6780E870E060E06F
:101A100008959FEF80EC089590958095709560955E
:101A200050954095309521953F4F4F4F5F4F6F4FE9
:101A30007F4F8F4F9F4F089500240A941616170664
:101A400018060906089500240A94121613061406AF
:101A500005060895092E0394000C11F4882352F012
:101A6000BB0F40F4BF2B11F460FF04C06F5F7F4FCA
:101A70008F4F9F4F089557FD9058440F551F59F0B1
:101A80005F3F71F04795880F97FB991F61F09F3F6B
:101A900079F087950895121613061406551FF2CF94
:101AA0004695F1DF08C0161617061806991FF1CFE4
:101AB00086957105610508940895E894BB2766270B
:101AC0007727CB0197F908950E94DF0C08F48FEF78
:101AD00008950E947C0D0C942A0D0E941C0D38F074
:101AE0000E94230D20F0952311F00C94030D0C940B
:101AF000090D11240C945E0D0E943B0D70F3959F0F
:101B0000C1F3950F50E0551F629FF001729FBB27F4
:101B1000F00DB11D639FAA27F00DB11DAA1F649F90
:101B20006627B00DA11D661F829F2227B00DA11D43
:101B3000621F739FB00DA11D621F839FA00D611DC9
:101B4000221F749F3327A00D611D231F849F600DEA
:101B5000211D822F762F6A2F11249F5750409AF013
:101B6000F1F088234AF0EE0FFF1FBB1F661F771F9F
:101B7000881F91505040A9F79E3F510580F00C946A
:101B8000030D0C945E0D5F3FE4F3983ED4F386950D
:101B900077956795B795F795E7959F5FC1F7FE2B0A
:101BA000880F911D9695879597F9089597FB10F8E2
:101BB000169400080F93083098F00850232F342F04
:101BC000452F562F672F782F892F902DF4CF05940E
:101BD0009795879577956795579547953795279565
:101BE0000A95AAF70F9108954532510520F4423025
:101BF00010F00C94FF0DFB011082CB010895BB2760
:101C00004A3031F4992322F4BDE2909581959F4F9B
:101C10000C940B0EBB27FB015527AA27880F991F91
:101C2000AA1FA41710F0A41B83955051B9F7A05D0B
:101C3000AA3308F0A95DA193009779F7B111B19388
:101C40001192CB010C943D10AEE0B0E0EAE2FEE070
:101C50000C94F5100D891E8986E08C831A83098304
:101C60008FEF9FE79E838D83AE01475E5F4F6F8945
:101C7000788DCE0101960E94460EEF81F885E00F27
:101C8000F11F10822E96E4E00C941111ABE0B0E04D
:101C9000ECE4FEE00C94E7106C017B018A01FC018E
:101CA00017821682838181FFCCC1CE0101963C014F
:101CB000F6019381F70193FD859193FF81917F0157
:101CC000882309F4BAC1853239F493FD859193FFD5
:101CD00081917F01853229F4B60190E00E944D1078
:101CE000E7CF912C212C312CFFE1F315D8F08B326A
:101CF00079F038F4803279F08332A1F4232D206119
:101D00001DC08D3261F0803369F4232D216016C02F
:101D1000832D8260382EE32DE4603E2E2AC0F32D01
:101D2000F8601DC037FC2DC020ED280F2A3040F090
:101D30008E32B9F436FC81C1232D2064322E19C0B5
:101D400036FE06C08AE0989E200D1124922E11C006
:101D5000EAE02E9E200D1124222EF32DF0623F2E5C
:101D600008C08C3621F4832D8068382E02C0883656
:101D700041F4F70193FD859193FF81917F018111DA
:101D8000B3CF982F9F7D9554933028F40C5F1F4F4D
:101D90009FE399830DC0833631F0833771F083352B
:101DA00009F059C021C0F801808189830E5F1F4F5F
:101DB00088248394912C530113C02801F2E04F0E24
:101DC000511CF801A080B18036FE03C0692D70E07F
:101DD00002C06FEF7FEFC5010E9432104C018201FB
:101DE000F32DFF773F2E16C0280122E0420E511C32
:101DF000F801A080B18036FE03C0692D70E002C0FA
:101E00006FEF7FEFC5010E9427104C01F32DF068A2
:101E10003F2E820133FC1BC0822D90E0881699066C
:101E2000B0F4B60180E290E00E944D102A94F4CF05
:101E3000F50137FC859137FE81915F01B60190E095
:101E40000E944D1021102A9421E0821A91088114D9
:101E5000910471F7E8C0843611F0893641F5F80134
:101E600037FE07C060817181828193810C5F1F4FB3
:101E700008C060817181072E000C880B990B0E5FE2
:101E80001F4FF32DFF763F2E97FF09C09095809549
:101E9000709561957F4F8F4F9F4FF0683F2E2AE0DE
:101EA00030E0A3010E948910882E861845C085372E
:101EB00031F4232D2F7EB22E2AE030E025C0932D61
:101EC000997FB92E8F36C1F018F4883579F0B5C0F6
:101ED000803719F0883721F0B0C0E92FE061BE2EBD
:101EE000B4FE0DC0FB2DF460BF2E09C034FE0AC045
:101EF000292F2660B22E06C028E030E005C020E180
:101F000030E002C020E132E0F801B7FE07C0608196
:101F10007181828193810C5F1F4F06C06081718146
:101F200080E090E00E5F1F4FA3010E948910882E71
:101F30008618FB2DFF773F2E36FE0DC0232D2E7FFA
:101F4000A22E891458F434FE0BC032FC09C0832D34
:101F50008E7EA82E05C0B82CA32C03C0B82C01C0BF
:101F6000B92CA4FE0FC0FE01E80DF11D8081803365
:101F700021F49A2D997EA92E09C0A2FE06C0B39421
:101F8000B39404C08A2D867809F0B394A3FC11C0E1
:101F9000A0FE06C0B21488F4280C922C9B180EC028
:101FA000B21460F4B60180E290E00E944D10B39448
:101FB000F7CFB21418F42B1802C0982C212CA4FED1
:101FC00010C0B60180E390E00E944D10A2FE17C041
:101FD000A1FC03C088E790E002C088E590E0B6016C
:101FE0000CC08A2D867859F0A1FE02C08BE201C098
:101FF00080E2A7FC8DE2B60190E00E944D108914AA
:1020000038F4B60180E390E00E944D109A94F7CF27
:102010008A94F301E80DF11D8081B60190E00E94E1
:102020004D108110F5CF222009F442CEB60180E296
:1020300090E00E944D102A94F6CFF6018681978198
:1020400002C08FEF9FEF2B96E2E10C940311FC018D
:102050000590615070400110D8F7809590958E0FD3
:102060009F1F0895FC016150704001900110D8F746
:10207000809590958E0F9F1F0895DC01FC01672FBE
:1020800071917723E1F7329704C07C916D9370834F
:102090006291AE17BF07C8F308950F931F93CF93B4
:1020A000DF93FB01238121FD03C08FEF9FEF2CC045
:1020B00022FF16C04681578124813581421753077C
:1020C00044F4A081B1819D012F5F3F4F3183208374
:1020D0008C93268137812F5F3F4F3783268314C02F
:1020E0008B01EC01FB010084F185E02D0995892B22
:1020F000E1F6D80116968D919C9117970196179647
:102100009C938E931697CE01DF91CF911F910F91E3
:102110000895FA01AA27283051F1203181F1E8947D
:102120006F936E7F6E5F7F4F8F4F9F4FAF4FB1E0CA
:102130003ED0B4E03CD0670F781F891F9A1FA11DC5
:10214000680F791F8A1F911DA11D6A0F711D811DC6
:10215000911DA11D20D009F468943F912AE0269F8B
:1021600011243019305D3193DEF6CF010895462FEA
:102170004770405D4193B3E00FD0C9F7F6CF462FCB
:102180004F70405D4A3318F0495D31FD4052419334
:1021900002D0A9F7EACFB4E0A695979587957795F1
:1021A0006795BA95C9F700976105710508959B0178
:1021B000AC010A2E06945795479537952795BA9501
:1021C000C9F7620F731F841F951FA01D08952F92DA
:1021D0003F924F925F926F927F928F929F92AF92B7
:1021E000BF92CF92DF92EF92FF920F931F93CF9304
:1021F000DF93CDB7DEB7CA1BDB0B0FB6F894DEBF9B
:102200000FBECDBF09942A88398848885F846E84C0
:102210007D848C849B84AA84B984C884DF80EE800A
:10222000FD800C811B81AA81B981CE0FD11D0FB613
:10223000F894DEBF0FBECDBFED010895F894FFCF37
:1022400080C094D4082101290132013D0144014795
:10225000014B01500155015C0163013332280C062A
:10226000015369676E616C3A00566F6C7461676503
:102270003A004672657175656E63793A005068611F
:1022800073653A0020560020487A00206465670094
:1022900073696E6500636F73696E65007371756154
:1022A000726500747269616E676C65002000256C50
:0222B0007500B7
:00000001FF
