:100000000C945A000C9477000C9477000C947700B1
:100010000C9477000C9477000C9477000C94770084
:100020000C9477000C9477000C9477000C94770074
:100030000C9477000C9477000C9477000C94770064
:100040000C9423030C9477000C9477000C947700A5
:100050000C9477000C9477000C9477000C94770044
:100060000C9477000C9477000C9477000C94770034
:100070000C9477000C9477000C9477000C94770024
:100080000C9477000C9477000C9477000C94770014
:100090000C9477000C9477000C9477000C94770004
:1000A0000C9477000C9477000C9477000C947700F4
:1000B0000C94770011241FBECFEFD8E0DEBFCDBF78
:1000C00011E0A0E0B1E0EAEAFBE002C005900D9289
:1000D000AA36B107D9F721E0AAE6B1E001C01D9226
:1000E000A037B207E1F70E9495020C94D3050C9457
:1000F000000080E091E00E94430380E091E20E94D2
:1001000043038DE492E60E94430381E490E40E945D
:10011000430380E090EC0E94430380E090E00E9463
:1001200043030895CF93C62F60E070E0782F729557
:10013000707F80E090E00E9410052BED3FE049ECDD
:1001400050E40E946F040E94E104AB0120916A0117
:1001500030916B01316030936B0120936A01C111C2
:100160000BC0506C20916A0130916B013B7F309342
:100170006B0120936A010DC0C13059F4AB01506E80
:1001800020916A0130916B01346030936B012093B0
:100190006A01CA010E94430380916A0190916B0138
:1001A0009E7F90936B0180936A01CF910895809117
:1001B0006A0190916B01916090936B0180936A0149
:1001C00080916A0190916B018D7990936B0180937E
:1001D0006A0180916A0190916B010E9443038091B2
:1001E0006A0190916B019E7F90936B0180936A01ED
:1001F00080916A0190916B010E9443030895CF930F
:10020000C82F0E94D7006C2F8AE590E00E949200D0
:10021000CF91089580916A0190916B018260916005
:1002200090936B0180936A0180916A0190916B01B8
:100230008F7990936B0180936A0180916A0190910C
:100240006B010E94430380916A0190916B019E7F34
:1002500090936B0180936A0180916A0190916B0188
:100260000E944303089580916A0190916B01886612
:10027000916090936B0180936A0180916A019091E3
:100280006B018D7F90936B0180936A0180916A016D
:1002900090916B010E94430380916A0190916B01E0
:1002A0009E7F90936B0180936A0180916A01909187
:1002B0006B010E9443030895813049F028F0823099
:1002C00051F0833059F008950E94D700089580E0DE
:1002D0000E94FF0008950E94330108950E940A01C0
:1002E0000895EF92FF920F931F93CF93DF937B01BB
:1002F000142F880F0E945403811112C0112391F012
:10030000E7011150012F10E00F5F1F4F0E0D1F1D51
:1003100089910E948403C017D107D1F7C0E003C0C0
:10032000C1E001C0C0E00E947B038C2FDF91CF9120
:100330001F910F91FF90EF9008950F931F93CF930C
:10034000DF9300D000D01F92CDB7DEB7082F683002
:1003500071F4811102C080E001C088E08093000147
:1003600041E060E071E087E20E94710126C0809167
:100370000001162F182B1983802F807F8460812B1A
:100380008A838B7F8B8320E1029FC0011124812B04
:1003900084608C838B7F8D8345E0BE016F5F7F4FD0
:1003A00087E20E94710110FD08C0033030F4E3EFD2
:1003B000F1E03197F1F700C000000F900F900F901F
:1003C0000F900F90DF91CF911F910F910895CF93D0
:1003D000DF93D82FC62FE62FF0E0E35EFE4F80813B
:1003E00060E08D0F0E949D018DEE92E00197F1F784
:1003F00000C00000D0936E01C0936F01DF91CF91D8
:10040000089560E081E00E949D0110926F011092BA
:100410006E010895CF93C82F90916E0180916D0168
:10042000981718F4CA3059F41AC060916F016F5FC1
:1004300060936F0180E00E94E701CA30C1F08091B3
:100440006E018F5F80936E0161E08C2F0E949D0191
:100450008DEE92E00197F1F700C0000008C06091B6
:100460006F016F5F60936F0180E00E94E701CF91A1
:100470000895CF93DF93EC018881882331F0219692
:100480000E940A0289918111FBCFDF91CF910895DB
:10049000DF92EF92FF920F931F93CF93DF9300D0E1
:1004A00000D000D0CDB7DEB7D82E86E0E7E1F1E08E
:1004B000DE01119601900D928A95E1F780E180931B
:1004C0006D010E944E038BE49DE10197F1F700C09E
:1004D00000008E010F5F1F4F7E0197E0E90EF11CB7
:1004E00060E0F80181918F010E949D0181EE94E00E
:1004F0000197F1F700C000000E151F0589F760E0B5
:100500008D2D0E949D0126960FB6F894DEBF0FBE7A
:10051000CDBFDF91CF911F910F91FF90EF90DF90B2
:10052000089568E00E949D010895CF93DF931F9284
:10053000CDB7DEB786B18170D82E8FEF89830E9448
:100540002A040E9439030E9479007894A12CF12C8E
:10055000B12C6F2D8D2D0E941103F82E8823C9F325
:1005600080916C01882379F081E0F81204C08B0D32
:100570008370B82E28C082E0F81225C08FEF8B0D53
:100580008370B82E20C0BA1429F0F8948B2D0E94E5
:100590005C01789481E0F81209C0BE016F5F7F4F63
:1005A00080E00E940703F82EAB2C0DC082E0F81209
:1005B00009C0BE016F5F7F4F80E00E940C03F82EE0
:1005C000AB2C01C0AB2CCB2CEE24E39400E010E06C
:1005D00020EA36E841E050E0BE016F5F7F4F80E0E7
:1005E0000E94AD03B6CF8EE486BD85B5856085BD1E
:1005F000EEE6F0E0808181608083089587B1887F96
:1006000087B988B1836088B90E94F3020895FB011D
:1006100080838F5F83700895FB0180838150837096
:10062000089596B19170981751F026B1227030E07C
:10063000892F90E02817390721F481E0089580E0A0
:10064000089582E008951F920F920FB60F92112421
:100650008F939F93329B06C090916C0181E0892714
:1006600080936C019F918F910F900FBE0F901F9000
:10067000189584B18C6284B985B1846285B98CB5D2
:1006800088658CBD08952A989EBD0DB407FEFDCFE8
:100690008EBD0DB407FEFDCF2A9A08951092D900A1
:1006A00088E48093D800089594EA9093DC00ECED00
:1006B000F0E090819923ECF79091D900987F9830E1
:1006C00011F09031A1F48093DB0084E88093DC008A
:1006D000ECEDF0E080818823ECF79091D900987FD1
:1006E000983139F081E0903429F480E0089581E078
:1006F000089580E0089584E98093DC00ECEDF0E05B
:10070000808184FDFDCF08958093DB0084E8809391
:10071000DC00ECEDF0E080818823ECF79091D900CB
:10072000987F81E0983209F480E008950E940102E8
:100730008FE39CE90197F1F700C000000895CF9383
:10074000682F80E00E94E701C0E181E291E00E9411
:100750003902C150D1F7CF9108958F929F92AF92F5
:10076000BF92CF92EF92FF920F931F93CF93DF939D
:10077000CDB7DEB72A970FB6F894DEBF0FBECDBF58
:10078000F82E49015A01FB0180818F1569F00E9402
:100790009603EF2DF0E0EE0FFF1FE15FFE4F80812B
:1007A00091810E94390203C081E00E949F0361E0B1
:1007B00080E00E94E701F1100BC0EC2DF0E0EE0F9D
:1007C000FF1FEF5FFE4F808191810E94390230C090
:1007D000F1E0FF120AC04AE0BE016F5F7F4F8E2D2D
:1007E000EE0C990B0E949E0515C082E0F81208C01D
:1007F0004AE0BE016F5F7F4FC4010E949E050AC0A0
:10080000E3E0FE1207C04AE0BE016F5F7F4FC80100
:100810000E949E05CE0101960E943902EF2DF0E064
:10082000EE0FFF1FE95FFE4F808191810E94390228
:100830002A960FB6F894DEBF0FBECDBFDF91CF91E1
:100840001F910F91FF90EF90CF90BF90AF909F902E
:100850008F900895CF92EF920F931F93CF93DF93D2
:100860001F92CDB7DEB78FEF89830E94FE028DB154
:100870008C7F8DB98EB183608EB982E00E94480270
:1008800080E00E9491022FEF89E698E1215080409C
:100890009040E1F700C0000081E00E9491022FEF3C
:1008A00089E698E1215080409040E1F700C00000C7
:1008B000C12CEE24E39400E010E020EA36E841E0A9
:1008C00050E0BE016F5F7F4F80E00E94AD030F904C
:1008D000DF91CF911F910F91EF90CF9008950E94DB
:1008E00083040C9464050E945D0558F00E9456052F
:1008F00040F029F45F3F29F00C944D0551110C9400
:1009000098050C9453050E94750568F39923B1F37B
:10091000552391F3951B550BBB27AA276217730725
:10092000840738F09F5F5F4F220F331F441FAA1FB9
:10093000A9F335D00E2E3AF0E0E832D09150504075
:10094000E695001CCAF72BD0FE2F29D0660F771F23
:10095000881FBB1F261737074807AB07B0E809F009
:10096000BB0B802DBF01FF2793585F4F3AF09E3F8E
:10097000510578F00C944D050C9498055F3FE4F315
:10098000983ED4F3869577956795B795F7959F5FD1
:10099000C9F7880F911D9695879597F90895E1E01D
:1009A000660F771F881FBB1F621773078407BA077C
:1009B00020F0621B730B840BBA0BEE1F88F7E095D7
:1009C00008950E947D0588F09F5798F0B92F9927C8
:1009D000B751B0F0E1F0660F771F881F991F1AF02A
:1009E000BA95C9F714C0B13091F00E949705B1E0F3
:1009F00008950C949705672F782F8827B85F39F0F2
:100A0000B93FCCF3869577956795B395D9F73EF4C2
:100A100090958095709561957F4F8F4F9F4F08956A
:100A2000E89409C097FB3EF4909580957095619588
:100A30007F4F8F4F9F4F9923A9F0F92F96E9BB273E
:100A40009395F695879577956795B795F111F8CFBA
:100A5000FAF4BB0F11F460FF1BC06F5F7F4F8F4F25
:100A60009F4F16C0882311F096E911C0772321F01B
:100A70009EE8872F762F05C0662371F096E8862FB3
:100A800070E060E02AF09A95660F771F881FDAF70A
:100A9000880F9695879597F9089597F99F6780E84D
:100AA00070E060E008959FEF80EC089500240A94C0
:100AB0001616170618060906089500240A94121639
:100AC0001306140605060895092E0394000C11F46C
:100AD000882352F0BB0F40F4BF2B11F460FF04C019
:100AE0006F5F7F4F8F4F9F4F089557FD9058440F72
:100AF000551F59F05F3F71F04795880F97FB991F7D
:100B000061F09F3F79F08795089512161306140639
:100B1000551FF2CF4695F1DF08C0161617061806C6
:100B2000991FF1CF86957105610508940895E894A1
:100B3000BB2766277727CB0197F90895BB274A3053
:100B400031F4992322F4BDE2909581959F4F0C9446
:100B5000AA05BB27FB015527AA27880F991FAA1FA3
:100B6000A41710F0A41B83955051B9F7A05DAA33C8
:100B700008F0A95DA193009779F7B111B193119293
:100B8000CB010C94C305DC01FC01672F7191772325
:100B9000E1F7329704C07C916D9370836291AE1738
:0A0BA000BF07C8F30895F894FFCFD3
:100BAA0008250123012A0131013A013D014101468B
:100BBA00014E01570162013332280C060180C094AC
:100BCA00D42000636F73696E650073717561726515
:100BDA0000747269616E676C650020560020487A5D
:100BEA000020646567005369676E616C3A00566F4E
:100BFA006C746167653A004672657175656E6379F2
:0A0C0A003A0050686173653A00007B
:00000001FF
