:100000000C945A000C9477000C9477000C947700B1
:100010000C9477000C9477000C9477000C94770084
:100020000C9477000C9477000C9477000C94770074
:100030000C9477000C9477000C9477000C94770064
:100040000C9477000C9477000C9477000C94770054
:100050000C9477000C9477000C9477000C94770044
:100060000C9477000C9477000C9477000C94770034
:100070000C9477000C9477000C9477000C94770024
:100080000C9477000C9477000C9477000C94770014
:100090000C9477000C9477000C9477000C94770004
:1000A0000C9477000C9477000C9477000C947700F4
:1000B0000C94770011241FBECFEFD8E0DEBFCDBF78
:1000C00011E0A0E0B1E0E0E4F1E002C005900D92A3
:1000D000A030B107D9F721E0A0E0B1E001C01D9246
:1000E000A130B207E1F70E9479000C949E000C94B5
:1000F000000087B1887F87B988B1876088B946B129
:10010000417086B18170481791F026B1227030E0BD
:1001100090E02817390731F0809100018F5F8093BC
:10012000000105C08091000181508093000186B1DB
:10013000809100018C5E80930001E3CFF894FFCFA3
:00000001FF
