:100000000C945A000C9477000C9477000C947700B1
:100010000C9477000C9477000C9477000C94770084
:100020000C9477000C9477000C9477000C94770074
:100030000C9477000C9477000C9477000C94770064
:100040000C9477000C9477000C9477000C94770054
:100050000C9477000C9477000C9477000C94770044
:100060000C9477000C9477000C9477000C94770034
:100070000C9477000C9477000C9477000C94770024
:100080000C9477000C9477000C9477000C94770014
:100090000C9477000C9477000C9477000C94770004
:1000A0000C9477000C9477000C9477000C947700F4
:1000B0000C94770011241FBECFEFD8E0DEBFCDBF78
:1000C00011E0A0E0B1E0ECE7F6E002C005900D928F
:1000D000AA37B107D9F721E0AAE7B1E001C01D9224
:1000E000AB38B207E1F70E9402020C943C030C9477
:1000F0000000EF92FF920F931F93CF93DF937B014A
:10010000142F880F0E94C502811112C0112391F093
:10011000E7011150012F10E00F5F1F4F0E0D1F1D43
:1001200089910E94F502C017D107D1F7C0E003C042
:10013000C1E001C0C0E00E94EC028C2FDF91CF91A2
:100140001F910F91FF90EF9008950F931F93CF93FE
:10015000DF9300D000D01F92CDB7DEB7082F6830F4
:1001600071F4811102C080E001C088E08093000139
:1001700041E060E071E087E20E94790026C0809152
:100180000001162F182B1983802F807F8460812B0C
:100190008A838B7F8B8320E1029FC0011124812BF6
:1001A00084608C838B7F8D8345E0BE016F5F7F4FC2
:1001B00087E20E94790010FD08C0033030F4E3EFBD
:1001C000F1E03197F1F700C000000F900F900F9011
:1001D0000F900F90DF91CF911F910F910895CF93C2
:1001E000DF93D82FC62FE62FF0E0E95EFE4F808127
:1001F00060E08D0F0E94A5008DEE92E00197F1F76F
:1002000000C00000D0938901C0938A01DF91CF9193
:10021000089560E081E00E94A50010928A0110928A
:1002200089010895CF93C82F909189018091880109
:10023000981718F4CA3059F41AC060918A016F5F98
:1002400060938A0180E00E94EF00CA30C1F0809183
:1002500089018F5F8093890161E08C2F0E94A50046
:100260008DEE92E00197F1F700C0000008C06091A8
:100270008A016F5F60938A0180E00E94EF00CF9156
:100280000895CF93DF93EC018881882331F0219684
:100290000E94120189918111FBCFDF91CF910895C6
:1002A00080918701809386018F5F8370809387019F
:1002B0000895809187018093860181508370809397
:1002C0008701089586B18170809383011092820125
:1002D00090918401891749F096B19270981302C0E9
:1002E00081E001C082E080938201329B06C0909140
:1002F000850181E089278093850108950E94090185
:100300008FE39CE90197F1F700C000000895682F82
:1003100080E00E94EF008BE191E00E94410108958E
:10032000CF93DF93CDB7DEB72A970FB6F894DEBF31
:100330000FBECDBF9091870180918601981771F013
:100340000E947E01E0918701F0E0EE0FFF1FE15F68
:10035000FE4F808191810E94410103C081E00E9493
:10036000870161E080E00E94EF00809187018111A8
:100370000CC0E0917A01F0E0EE0FFF1FEF5FFE4F3F
:10038000808191810E94410134C0813051F480917B
:100390007B014AE0BE016F5F7F4F90E00E94070340
:1003A00019C0823059F44AE0BE016F5F7F4F8091DF
:1003B0007E0190917F010E9407030CC0833051F4AD
:1003C0004AE0BE016F5F7F4F80917C0190917D017B
:1003D0000E940703CE0101960E944101E09187012E
:1003E000F0E0EE0FFF1FE95FFE4F808191810E94D8
:1003F00041012A960FB6F894DEBF0FBECDBFDF9144
:10040000CF91089587B1887F87B988B1836088B913
:1004100086B18170809384010E9462018091850180
:10042000882309F496C0809187018130E1F030F093
:10043000823091F1833009F46BC096C080918201C3
:10044000813039F480917A018F5F837080937A01D3
:1004500090C0823009F088C080917A018150837009
:1004600080937A0186C080918201813049F4809125
:100470007B01843108F07DC08F5F80937B0179C060
:10048000823009F071C080917B01882309F471C02A
:10049000815080937B016DC0809182018130E1F4B5
:1004A00080917E0190917F01A0918001B0918101A6
:1004B000803422E492072FE0A207B10508F059C06A
:1004C0000196A11DB11D80937E0190937F01A093A1
:1004D0008001B09381014DC0823009F045C0809108
:1004E0007E0190917F01A0918001B09181018230C5
:1004F0009105A105B105E8F10197A109B109809322
:100500007E0190937F01A0938001B093810131C05F
:1005100080918201813069F480917C0190917D010C
:10052000843B910530F5019690937D0180937C0189
:1005300020C08230C9F480917C0190917D018D347E
:100540002FEF9207B0F0019790937D0180937C018B
:1005500010C080918201813019F40E94500104C0C2
:10056000823011F40E94590180918201882309F49C
:1005700053CF0E9490018FEF90E722E0815090408E
:100580002040E1F700C0000047CF94EA9093DC00E0
:10059000ECEDF0E090819923ECF79091D900987FF1
:1005A000983011F09031A1F48093DB0084E88093BF
:1005B000DC00ECEDF0E080818823ECF79091D9002D
:1005C000987F983139F081E0903429F480E00895E3
:1005D00081E0089580E0089584E98093DC00ECEDEB
:1005E000F0E0808184FDFDCF08958093DB0084E8F6
:1005F0008093DC00ECEDF0E080818823ECF79091B3
:10060000D900987F81E0983209F480E00895BB27F3
:100610004A3031F4992322F4BDE2909581959F4FA1
:100620000C941303BB27FB015527AA27880F991F9A
:10063000AA1FA41710F0A41B83955051B9F7A05D11
:10064000AA3308F0A95DA193009779F7B111B1938E
:100650001192CB010C942C03DC01FC01672F7191EA
:100660007723E1F7329704C07C916D937083629198
:0C067000AE17BF07C8F30895F894FFCF41
:10067C00083201300137013E0147014A014E015356
:10068C00015C016601720180C094D42020202020DE
:10069C00202020202020202020202020202020006E
:1006AC00636F73696E650073717561726500747246
:1006BC0069616E676C650020560020487A002064E2
:1006CC006567005369676E616C3A2000566F6C74F5
:1006DC006167653A20004672657175656E63793A9B
:0A06EC00200050686173653A200099
:00000001FF
