:100000000C945A000C9477000C9477000C947700B1
:100010000C9477000C9477000C9477000C94770084
:100020000C9477000C9477000C9477000C94770074
:100030000C9477000C9477000C9477000C94770064
:100040000C9477000C9477000C9477000C94770054
:100050000C9477000C9477000C9477000C94770044
:100060000C9477000C9477000C9477000C94770034
:100070000C9477000C9477000C9477000C94770024
:100080000C9477000C9477000C9477000C94770014
:100090000C9477000C9477000C9477000C94770004
:1000A0000C9477000C9477000C9477000C947700F4
:1000B0000C94770011241FBECFEFD8E0DEBFCDBF78
:1000C00011E0A0E0B1E0E0EDF7E002C005900D9294
:1000D000AE37B107D9F721E0AEE7B1E001C01D921C
:1000E000AE38B207E1F70E949D010C94E6030C9430
:1000F0000000EF92FF920F931F93CF93DF937B014A
:10010000142F880F0E94B902811112C0112391F09F
:10011000E7011150012F10E00F5F1F4F0E0D1F1D43
:1001200089910E94E902C017D107D1F7C0E003C04E
:10013000C1E001C0C0E00E94E0028C2FDF91CF91AE
:100140001F910F91FF90EF9008950F931F93CF93FE
:10015000DF9300D000D01F92CDB7DEB7082F6830F4
:1001600071F4811102C080E001C088E08093000139
:1001700041E060E071E087E20E94790026C0809152
:100180000001162F182B1983802F807F8460812B0C
:100190008A838B7F8B8320E1029FC0011124812BF6
:1001A00084608C838B7F8D8345E0BE016F5F7F4FC2
:1001B00087E20E94790010FD08C0033030F4E3EFBD
:1001C000F1E03197F1F700C000000F900F900F9011
:1001D0000F900F90DF91CF911F910F910895CF93C2
:1001E000DF93D82FC62FE62FF0E0E25EFE4F80812E
:1001F00060E08D0F0E94A5008DEE92E00197F1F76F
:1002000000C00000D0938C01C0938D01DF91CF918D
:10021000089560E081E00E94A50010928D01109287
:100220008C010895CF93C82F90918C0180918B0100
:10023000981718F4CA3059F41AC060918D016F5F95
:1002400060938D0180E00E94EF00CA30C1F0809180
:100250008C018F5F80938C0161E08C2F0E94A50040
:100260008DEE92E00197F1F700C0000008C06091A8
:100270008D016F5F60938D0180E00E94EF00CF9150
:100280000895CF93DF93EC018881882331F0219684
:100290000E94120189918111FBCFDF91CF910895C6
:1002A000DF92EF92FF920F931F93CF93DF9300D0D3
:1002B00000D000D0CDB7DEB7D82E86E0E8E1F1E07F
:1002C000DE01119601900D928A95E1F784E1809309
:1002D0008B010E94B3028BE49DE10197F1F700C00E
:1002E00000008E010F5F1F4F7E0197E0E90EF11CA9
:1002F00060E0F80181918F010E94A50081EE94E0F9
:100300000197F1F700C000000E151F0589F760E0A6
:100310008D2D0E94A50026960FB6F894DEBF0FBE65
:10032000CDBFDF91CF911F910F91FF90EF90DF90A4
:10033000089568E00E94A50008950E94760286B1A3
:100340008170809380010E948B030E9493028091B0
:100350008101882309F4B5C0809182018130F1F0D8
:1003600030F08230C9F1833009F481C0B7C0809188
:100370007E01813039F4809183018F5F8370809397
:100380008301ACC080917E01823009F0A7C08091CA
:1003900083018150837080938301A0C080917E018E
:1003A000813051F480918401843134F4809184014E
:1003B0008F5F8093840192C080917E01823009F02A
:1003C0008DC0809184018D3E0CF488C080918401A1
:1003D00081508093840182C080917E01813009F533
:1003E0008091870190918801A0918901B0918A0143
:1003F00080349244AF40B105A0F480918701909180
:100400008801A0918901B0918A010196A11DB11DB9
:100410008093870190938801A0938901B0938A010A
:100420005DC080917E01823009F058C080918701C3
:1004300090918801A0918901B0918A010297A1054C
:10044000B10508F44BC08091870190918801A0917B
:100450008901B0918A010197A109B10980938701AF
:1004600090938801A0938901B0938A0137C080914D
:100470007E01813089F48091850190918601843BD1
:10048000910554F480918501909186010196909395
:1004900086018093850122C080917E018230F1F433
:1004A00080918501909186018D349F4FBCF08091A1
:1004B0008501909186010197909386018093850133
:1004C0000DC080917E01813019F40E947D0206C02A
:1004D00080917E01823011F40E94880280917E0119
:1004E000882309F432CF0E940D032FCF87B1887F74
:1004F00087B988B1836088B908958091820180931B
:100500000101809182018F5F837080938201089541
:1005100080918201809301018091820181508370DA
:1005200080938201089586B1817080937F0110923B
:100530007E0190917F0180918001981759F086B1DA
:1005400090917F018270891302C081E001C082E036
:1005500080937E01329B06C09091810181E08927C2
:100560008093810108951092D90088E48093D80087
:10057000089594EA9093DC00ECEDF0E090819923EB
:10058000ECF79091D900987F983011F09031A1F458
:100590008093DB0084E88093DC00ECEDF0E0808168
:1005A0008823ECF79091D900987F983139F081E059
:1005B000903429F480E0089581E0089580E0089562
:1005C00084E98093DC00ECEDF0E0808184FDFDCFD8
:1005D00008958093DB0084E88093DC00ECEDF0E08C
:1005E00080818823ECF79091D900987F81E0983240
:1005F00009F480E008950E9409018FE39CE90197C6
:10060000F1F700C000000895682F80E00E94EF001D
:1006100082E291E00E9441010895CF93DF93CDB72C
:10062000DEB72A970FB6F894DEBF0FBECDBF90910C
:10063000820180910101981771F00E94FB02E09104
:100640008201F0E0EE0FFF1FE05FFE4F808191819D
:100650000E94410103C081E00E94040361E080E048
:100660000E94EF008091820181110CC0E091830112
:10067000F0E0EE0FFF1FEE5FFE4F808191810E9440
:10068000410140C080918201813061F480918401F8
:100690004AE0BE016F5F7F4F082E000C990B0E944D
:1006A000B10321C080918201823079F48091870169
:1006B00090918801A0918901B0918A014AE0BE0120
:1006C0006F5F7F4F0E94B1030EC080918201833023
:1006D00051F480918501909186014AE0BE016F5FDF
:1006E0007F4F0E94B103CE0101960E944101E0912B
:1006F0008201F0E0EE0FFF1FE85FFE4F80819181E5
:100700000E9441012A960FB6F894DEBF0FBECDBFFE
:10071000DF91CF9108950E9476028DB18C7F8DB9C3
:100720008EB183608EB982E00E94500180E00E9409
:1007300099012FEF89E698E1215080409040E1F740
:1007400000C0000081E00E9499012FEF89E698E146
:10075000215080409040E1F700C000000E940D034E
:100760000895BB274A3031F4992322F4BDE29095D5
:1007700081959F4F0C94BD03BB27FB015527AA27EA
:10078000880F991FAA1FA41710F0A41B839550511E
:10079000B9F7A05DAA3308F0A95DA193009779F796
:1007A000B111B1931192CB010C94D603DC01FC0181
:1007B000672F71917723E1F7329704C07C916D9395
:1007C00070836291AE17BF07C8F30895F894FFCF06
:1007D00008FF390137013E0145014E015101550124
:1007E0005A0162016B0176013332280C060180C088
:1007F00094D42020202020202020202020202020D1
:1008000020202020202000636F73696E65007371C3
:100810007561726500747269616E676C650020565F
:100820000020487A0020646567005369676E616C38
:100830003A00566F6C746167653A0046726571756F
:0E084000656E63793A0050686173653A000096
:00000001FF
